:100000000C9463000C948B000C948B000C94C50131
:100010000C94C5010C94C5010C948B000C948B00BE
:100020000C948B000C948B000C948B000C948B0024
:100030000C948B000C948B000C948B000C948B0014
:100040000C9456030C948B000C948B000C948B0036
:100050000C948B000C948B000C948B000C948B00F4
:100060000C948B000C948B0000000008000201002F
:100070000003040700000000000000000102040863
:100080001020408001020408102001020408102002
:10009000040404040404040402020202020203032E
:1000A00003030303000000002300260029000000D2
:1000B0000000250028002B0000000000240027007D
:1000C0002A00D700DE0011241FBECFEFD8E0DEBF2C
:1000D000CDBF11E0A0E0B1E0E8E9FBE002C005908F
:1000E0000D92A836B107D9F721E0A8E6B1E001C02A
:1000F0001D92A43DB207E1F710E0C4ECD0E004C0CB
:100100002297FE010E94BB05C23CD107C9F70E949D
:1001100040050C94BF050C940000089560E071E068
:1001200088E691E00E940E0564E670E080E090E0D1
:100130000E94C3036BE071E088E691E00E941B051A
:1001400064E670E080E090E00E94C30367E271E043
:1001500088E691E00E941B0564E670E080E090E094
:100160000E94C3036AE188E691E00E942D0564E6DF
:1001700070E080E090E00E94C30388E691E00E9476
:10018000170568E873E180E090E00C94C30340E059
:100190005BE460E070E088E691E00E94C80260E203
:1001A0007EE480E090E00E94C3030C948E0020E087
:1001B00048E067E088E691E00C94980288E691E0D8
:1001C0000C943F022091C9013091CA0128173907C8
:1001D000B9F49091870180918801981789F0E09196
:1001E0008701F0E0E757FE4F80812091870130E0E2
:1001F0002F5F3F4F2F7333272093870190E008959F
:100200008FEF9FEF08951F93CF93DF93DC015C96F0
:100210008D919C915D97009749F481E090E0139651
:100220009C938E93129780E090E03BC05196ED91A5
:10023000FC91529750962C915097322F30951FB7C2
:100240005E964C915E9741FB772770F941FD609572
:10025000F8944081772311F0422B01C0432340835F
:10026000EC012197F1F748E0508160FF02C0522B6A
:1002700001C053235083EC012197F1F7669541505B
:1002800099F78081772311F0832301C0822B80832B
:100290001FBF5C968D919C915D970197F1F781E06E
:1002A00090E0DF91CF911F91089508952091C901A9
:1002B0003091CA012817390771F490918701809114
:1002C0008801981741F0E0918701F0E0E757FE4F71
:1002D000808190E008958FEF9FEF08952091C901EC
:1002E0003091CA012817390771F480918801209153
:1002F000870190E0805C9F4F821B910960E470E071
:100300000E945005089580E090E00895E091C901B1
:10031000F091CA01E817F90769F4A389B4899C919F
:100320008589809589238C931092CA011092C90106
:1003300081E0089580E00895CF93DF93EC018A8DEA
:100340009B8D892BF1F08091C9019091CA018C1786
:100350009D07B9F0009711F00E9486018E8D8E7F67
:100360008E8F1092880110928701D093CA01C0939A
:10037000C901EB89FC8980819D89892B808381E07B
:1003800001C080E0DF91CF9108951F920F920FB6C8
:100390000F9211242F933F934F935F936F937F930B
:1003A0008F939F93AF93BF93EF93FF93E091C90116
:1003B000F091CA01309709F451C0868DA685B785A2
:1003C000958581FF04C08C91892329F447C08C91C5
:1003D000892309F043C0A389B4899C9185898095BC
:1003E00089238C93868997890197F1F7208D318D28
:1003F000A685B785758558E040E0C9010197F1F7FA
:10040000842F90E095958795482F6C91672309F08C
:100410004068515091F7868D81FD4095809188010B
:1004200090E001968F73992720918701281749F052
:10043000A0918801B0E0A757BE4F4C9380938801EC
:1004400003C0868D8160868F828D938D0197F1F731
:10045000A389B4898C919589892B8C93FF91EF9115
:10046000BF91AF919F918F917F916F915F914F91CC
:100470003F912F910F900FBE0F901F9018952DE474
:1004800031E0FC01318320830C9486011F93CF93CC
:10049000DF93EC01162F6E8D6695617081E0682701
:1004A000812F0E949A0461E0812F0E946104812FB4
:1004B00090E0FC01E458FF4FE491E88BFC01E05729
:1004C000FF4FE491F0E0EE0FFF1FE255FF4F8591E3
:1004D00094919A8B898BDF91CF911F9108951F93EF
:1004E000CF93DF93EC01162F60E0812F0E9461040F
:1004F0008E8D81FD04C061E0812F0E949A041C87CB
:10050000812F90E0FC01E458FF4FE491ED87FC015E
:10051000E057FF4FE491F0E0EE0FFF1FEC55FF4F67
:10052000859194919F878E87DF91CF911F91089538
:10053000FF920F931F93CF93DF93EC01F62E522F70
:100540001B821A8208EE13E020E030E00C831D834A
:100550002E833F838DE491E0998388831F8A1E8ACE
:10056000198E188E1B8E1A8E1D8E1C8E8E8D8E7F70
:1005700050FB81F98E8F642FCE010E9446026F2DB1
:10058000CE01DF91CF911F910F91FF900C946F02DC
:10059000CF93DF93EC019A01AB011B8E1A8E198E5B
:1005A000188E1F8A1E8A60E079E08DE390E00E9439
:1005B0008605C9012430310520F0B9016350710965
:1005C00002C061E070E07D8F6C8FEC85E63108F051
:1005D00068C0B901769567956431710518F063516B
:1005E000710902C061E070E07F8B6E8B069718F096
:1005F000C901059702C081E090E0998F888FC901F9
:10060000880F991F820F931F9695879596958795CA
:100610008D30910510F00C9702C081E090E09B8F27
:100620008A8F20916800E83050F091E0EE3008F4B5
:1006300090E081E001C0880F9A95EAF701C084E05C
:10064000822B809368002C85283038F02E3040F0C3
:10065000263148F48CE690E008C08DE690E005C0B5
:100660008BE690E002C080E090E09C8B8B8B283082
:1006700030F481E001C0880F2A95EAF70DC0822F7F
:1006800090E02E3010F4089701C00E9791E001C061
:10069000990F8A95EAF7892F8D8B8C8D9D8D019707
:1006A000F1F7CE01DF91CF910C949C011F920F9234
:1006B0000FB60F9211242F933F938F939F93AF9375
:1006C000BF938091CC019091CD01A091CE01B091CA
:1006D000CF013091CB0123E0230F2D3720F4019679
:1006E000A11DB11D05C026E8230F0296A11DB11D55
:1006F0002093CB018093CC019093CD01A093CE01A8
:10070000B093CF018091D0019091D101A091D201FD
:10071000B091D3010196A11DB11D8093D00190939A
:10072000D101A093D201B093D301BF91AF919F911A
:100730008F913F912F910F900FBE0F901F901895A2
:100740003FB7F8948091D0019091D101A091D2014E
:10075000B091D30126B5A89B05C02F3F19F0019693
:10076000A11DB11D3FBF6627782F892F9A2F620FD9
:10077000711D811D911D42E0660F771F881F991F13
:100780004A95D1F708958F929F92AF92BF92CF92E0
:10079000DF92EF92FF926B017C010E94A0034B015C
:1007A0005C01C114D104E104F104F1F00E944F0591
:1007B0000E94A003681979098A099B09683E734061
:1007C0008105910570F321E0C21AD108E108F10812
:1007D00088EE880E83E0981EA11CB11CC114D104C0
:1007E000E104F10429F7DDCFFF90EF90DF90CF9087
:1007F000BF90AF909F908F900895789484B5826059
:1008000084BD84B5816084BD85B5826085BD85B5B4
:10081000816085BDEEE6F0E0808181608083E1E863
:10082000F0E010828081826080838081816080839B
:10083000E0E8F0E0808181608083E1EBF0E080819E
:1008400084608083E0EBF0E0808181608083EAE770
:10085000F0E08081846080838081826080838081F9
:10086000816080838081806880831092C1000895B8
:10087000833081F028F4813099F08230A1F008951E
:100880008730A9F08830B9F08430D1F480918000AD
:100890008F7D03C0809180008F77809380000895C2
:1008A00084B58F7702C084B58F7D84BD0895809113
:1008B000B0008F7703C08091B0008F7D8093B0002F
:1008C0000895CF93DF9390E0FC01E458FF4F24910B
:1008D000FC01E057FF4F8491882349F190E0880F95
:1008E000991FFC01E854FF4FA591B49182559F4F89
:1008F000FC01C591D4919FB7611108C0F8948C9107
:10090000209582238C93888182230AC0623051F41F
:10091000F8948C91322F309583238C938881822B8D
:10092000888304C0F8948C91822B8C939FBFDF91B5
:10093000CF9108950F931F93CF93DF931F92CDB75D
:10094000DEB7282F30E0F901E859FF4F8491F90113
:10095000E458FF4F1491F901E057FF4F0491002331
:10096000C9F0882321F069830E9438046981E02F4F
:10097000F0E0EE0FFF1FE255FF4FA591B4919FB736
:10098000F8948C91611103C01095812301C0812BD3
:100990008C939FBF0F90DF91CF911F910F9108957E
:1009A000CF92DF92EF92FF920F931F93CF93DF933B
:1009B0007C016A01EB0100E010E00C151D0571F0EF
:1009C0006991D701ED91FC910190F081E02DC70173
:1009D0000995892B19F00F5F1F4FEFCFC801DF91E9
:1009E000CF911F910F91FF90EF90DF90CF900895DE
:1009F0006115710581F0DB010D900020E9F7AD0173
:100A000041505109461B570BDC01ED91FC910280CE
:100A1000F381E02D099480E090E008950C94F804AF
:100A2000DC01ED91FC910190F081E02D099469E5E4
:100A300071E00C94F8040F931F93CF93DF93EC01B4
:100A40000E94F8048C01CE010E941705800F911FAF
:100A5000DF91CF911F910F9108950F931F93CF9323
:100A6000DF93EC010E9410058C01CE010E94170556
:100A7000800F911FDF91CF911F910F9108950895DD
:100A80000E94FD030E943F050E94C700C0E0D0E025
:100A90000E948D002097E1F30E940000F9CF089595
:100AA00097FB072E16F4009407D077FD09D00E941B
:100AB000A50507FC05D03EF4909581959F4F0895BC
:100AC000709561957F4F0895A1E21A2EAA1BBB1B5A
:100AD000FD010DC0AA1FBB1FEE1FFF1FA217B3070A
:100AE000E407F50720F0A21BB30BE40BF50B661F20
:100AF000771F881F991F1A9469F7609570958095E4
:100B000090959B01AC01BD01CF010895052E97FB87
:100B10001EF400940E949D0557FD07D00E946405B5
:100B200007FC03D04EF40C949D05509540953095EC
:100B300021953F4F4F4F5F4F089590958095709549
:100B400061957F4F8F4F9F4F0895AA1BBB1B51E1AB
:100B500007C0AA1FBB1FA617B70710F0A61BB70B2D
:100B6000881F991F5A95A9F780959095BC01CD01D2
:100B70000895EE0FFF1F0590F491E02D099410E009
:100B8000C4ECD0E004C0FE010E94BB052296C63C26
:080B9000D107C9F7F894FFCF6B
:100B980041542B434D47463D310D004154202B20F5
:100BA800434D4753203D20222B58585858585858E1
:100BB800585858585822004D657373616765206509
:100BC80078616D706C652066726F6D204172647516
:100BD800696E6F20556E6F2E00000000000301D073
:100BE800046E01E200560155010D0A006E616E00A7
:080BF800696E66006F7666006D
:00000001FF
